:020000040800F2
:10000000705B0020810200087F400008B5390008BD
:100010007D400008910D0008A96000080000000064
:10002000000000000000000000000000C101000806
:100030001F130008000000001D0200087956000888
:100040009B0200089B0200089B0200089B0200081C
:100050009B0200089B0200089B0200089B0200080C
:100060009B0200089B0200089B0200089B020008FC
:10007000211200089B0200082D1200089B020008B4
:100080009B020008391200089B0200089B0200082E
:10009000950D0008A10D00089B0200089B020008B6
:1000A0009B0200089B0200089B0200089B020008BC
:1000B0009B0200089B0200089B0200089B020008AC
:1000C0009B0200089B0200089B0200089B0200089C
:1000D0009B020008CD5F00089B0200089B020008FD
:1000E0009B0200089B0200089B0200089B0200087C
:1000F0009B0200089B0200089B0200089B0200086C
:100100009B0200089B0200089B0200089B0200085B
:100110009B0200089B020008495700085557000839
:100120009B0200089B020008451200089B02000881
:100130009B0200089B0200089B0200089B0200082B
:10014000AD0D0008B90D00089B0200089B020008D5
:100150009B0200089B0200089B0200089D600008AB
:100160009B0200089B0200089B0200089B020008FB
:100170009B0200089B0200089B0200080000000090
:100180009B0200089B0200088D5A0008A15A000833
:100190009B0200089B0200089B0200089B020008CB
:1001A00000000000000000009B020008DFF80CD0F7
:1001B00000F03CFC00480047CD8D0008705B00203B
:1001C0002C4B19680868B0E8F04F80F30988BFF33A
:1001D0006F8F4FF0000080F311887047000000001F
:1001E00008480068006880F308884FF0000080F33A
:1001F000148862B661B6BFF34F8FBFF36F8F00DF15
:1002000000BF00BF08ED00E0DFF80C00016841F41A
:1002100070010160704700BF88ED00E0EFF30980D6
:10022000BFF36F8F134B1A681EF0100F08BF20ED3D
:10023000108A20E9F04F106009B44FF0500080F3AD
:100240001188BFF34F8FBFF36F8F0AF0BFF84FF0E5
:10025000000080F3118809BC19680868B0E8F04F05
:100260001EF0100F08BFB0EC108A80F30988BFF3AE
:100270006F8F70474C010020EFF30580704700003E
:100280000648804706480047FEE7FEE7FEE7FEE730
:10029000FEE7FEE7FEE7FEE7FEE7FEE73957000868
:1002A000AD0100082DE9F05F0546002092469B460F
:1002B00088460646814640241BE02846414647467C
:1002C000224600F094FA53465A46C01A914110D380
:1002D00011461846224600F07BFA2D1A67EB0108FA
:1002E0004F4622460120002100F072FA17EB000968
:1002F0004E41201EA4F10104DFDC484631462A4667
:100300004346BDE8F09F40EA01039B0703D009E0A4
:1003100008C9121F08C0042AFAD203E011F8013BF1
:1003200000F8013B521EF9D27047D2B201E000F84A
:10033000012B491EFBD270470022F6E710B5134689
:100340000A4604461946FFF7F0FF204610BD2DE986
:10035000FE4F804681EA0300C00F0C46009021F05A
:10036000004123F00045B8EB0200A94105D2404608
:10037000214690461C460B46024623F0004010439F
:1003800047D0270DC7F30A00C3F30A510290401A61
:10039000019040286BDAC3F3130040F4801B0098EF
:1003A000924620B10023D2EB030A63EB0B0B0198BA
:1003B0005946C0F14002504600F00AFA06460D4682
:1003C00050465946019A00F022FA10EB08006141AC
:1003D000002487EA115284EAE7731A4340D0009A56
:1003E00062B3019A012A4FEA075215DC001B61EB48
:1003F00002014FF0004202EA0752CDE90042001C20
:1004000041F5801132462B4600F059FA03B0BDE8A1
:10041000F08F40462146F9E7001B61EB0201001C0A
:1004200041F5801300185B412018A2F5001747EB37
:10043000030140EAD570B6196D4111E06D084FEA2D
:10044000360645EAC0754FEA0752001B61EB020110
:10045000001C41F5801149084FEA30000019514154
:1004600032462B4603B0BDE8F04F00F019BA0098B1
:10047000012240000023D0EB020263EBE0730098FE
:1004800021464FEAE074B8EB000061EB0401E9E7B4
:1004900083F000435BE781F0004158E72DE9FE4F10
:1004A00081EA030404F0004421F0004100944FF07D
:1004B000000B23F0004350EA01045ED052EA03042B
:1004C0005BD0C3F30A54C1F30A552C44A4F2F334AD
:1004D0000194A0FB0254C1F3130141F48011C3F352
:1004E000130343F4801301FB024400FB034E840A10
:1004F000970A44EA815447EA8357A4FB07680295A8
:100500008D0A05FB07854FEA932C04FB0C54270545
:10051000029D4FEA065847EA1637B5EB08056EEB21
:10052000070C870E920E47EA811742EA8312A7FB57
:100530000201B6EB0B0164EB00042B0D43EA0C3314
:100540005E1844EB1C50DA465146E7FB0201C5F346
:1005500013044FEA0B3343EA14534FEA0432019C6D
:1005600043EA0603A4F10C040294009CCDE900B414
:1005700000F0A5F903B0BDE8F08F00200146F9E7CF
:100580002DE9F04D81EA030404F0004B21F0004511
:1005900014464FF0000A23F0004150EA050220D033
:1005A00054EA01021DD0C5F30A570246C5F31303EE
:1005B000C1F31300C1F30A5640F4801543F48013CD
:1005C000A7EB0608101BD64608F2FD3873EB0500B2
:1005D00002D308F1010801E092185B41B8F1000F65
:1005E00003DA00200146BDE8F08D00204FF48011B1
:1005F000064684460EE0171B73EB050705D3121B56
:1006000063EB050306434CEA010C49084FEA30004E
:1006100092185B4150EA0107EDD152EA030012D073
:1006200082EA040083EA0501084305D0101BAB41B0
:1006300006D20122002306E000224FF0004302E030
:100640006FF0010253101AEB06004CEB085110EB4F
:100650000A0041EB0B01BDE8F04D00F021B9F0B408
:10066000CA17CB0F50405140C61841F100054FEA60
:10067000C372314628004FF0960303D0B623F0BC76
:1006800000F0E0B830460021F9E70EB5C10F80EA6E
:10069000E0700844CA07002140F233438DE80E00A1
:1006A0000A460B4600F00BF903B000BD3EB5CA1771
:1006B000CB0F002450405140C0186141DA0740F28E
:1006C00033430094CDE901232246234600F0F7F896
:1006D00003B030BD70B5C1F30A5201F000450024EB
:1006E000C1F3130140F2FF3341F480119A4201DA61
:1006F000002070BD40F233439A42A2F2334203DC41
:10070000524200F074F800E090402C43F1D0404297
:1007100070BD00F0004230F000400AD0C10D01F57C
:100720006071C0F3160042EA0151C208400711434C
:10073000704700200146704730B5041E71F1000477
:1007400004DB4FF00044404264EB0101141E73F1DE
:10075000000405DB1C464FF00043524263EB0403E8
:100760008B4208BF824230BD30B5041E71F10004D7
:1007700004DB4FF00044404264EB0101141E73F1AE
:10078000000405DB1C464FF00043524263EB0403B8
:10079000994208BF904230BD01F0004330B421F0CF
:1007A000004150EA010206D00A0DA2F56072C1F3C1
:1007B0001301002A02DC30BC00207047440F44EAD9
:1007C000C104C100E01830BC00EBC25000F031B8E9
:1007D000202A04DB203A00FA02F100207047914001
:1007E000C2F1200320FA03F3194390407047202AF6
:1007F00004DB203A21FA02F00021704721FA02F3CB
:10080000D040C2F120029140084319467047202A87
:1008100006DBCB17203A41FA02F043EAE07306E028
:1008200041FA02F3D040C2F1200291400843194638
:1008300070470029A8BF7047401C490008BF20F03E
:100840000100704710B4B0FA80FC00FA0CF050EAD6
:10085000010404BF10BC704749B1CCF1200421FA57
:1008600004F411FA0CF118BF012121430843A3EB52
:100870000C01CB1D4FEA00614FEA102042BF00205F
:1008800010BC704700EBC35010440029A4BF10BC3B
:100890007047401C490008BF20F0010010BC7047A1
:1008A00010B5141E73F1000408DA401C41F1000178
:1008B00092185B411A4301D120F0010010BD2DE9CF
:1008C000F04D92469B4611B1B1FA81F202E0B0FAC6
:1008D00080F220329046FFF77BFF04460F4640EA45
:1008E0000A0041EA0B0153465A46084313D0114609
:1008F00053EA010019D0C8F140025046FFF777FFD4
:1009000005460E46504659464246FFF761FF0843EA
:1009100005D0012004E020463946BDE8F08D0020D6
:10092000054346EAE0762C4337430A986305E40A18
:10093000A0EB08000022FD0A44EA47540A3002D521
:1009400000200146E9E7010510196941DDE9084584
:1009500000196941BDE8F04DA2E770B521F00043F0
:1009600003430CD0C1F30A550024D5EB040564EB16
:100970000403D617AD1AB34102DB0020014670BD57
:10098000201841EB025170BD2DE9F04D00231A46AD
:100990001B1A8A4103DB00200146BDE8F08DC1F33C
:1009A0000A52C1F3130141F480154FF0000BD10737
:1009B00002D100186D41521E0027044640F2FF117B
:1009C000384601EB620A3E468046024600204FF45C
:1009D0008011FFF70CFFC2197141BB1846EB0100F3
:1009E000B4EB030C75EB000C04D3E41A65EB0005C3
:1009F00017460E46241908F101006D41804634283F
:100A0000E3DDF91946EB0600091BA84103D24FF0BC
:100A1000FF32134601E0002213461BEB070046EBB2
:100A20000A51BDE8F04DFFF73BBF0000064C074DF3
:100A300006E0E06840F0010394E8070098471034AE
:100A4000AC42F6D3FFF7B6FB28AD000848AD00086E
:100A50000EB540F2334102910021CDE900110A4662
:100A60000B46FFF72CFF03B000BD70B58C1810F8D3
:100A7000015B15F0070301D110F8013B2A1106D1E3
:100A800010F8012B03E010F8016B01F8016B5B1EFD
:100A9000F9D12B0705D40023521E0DD401F8013BD8
:100AA000FAE710F8013BCB1A921C03E013F8015B44
:100AB00001F8015B521EF9D5A142D8D3002070BDC8
:100AC000B4EEE00AF1EE10FA01DD30EE600AB5EEA8
:100AD000C00AF1EE10FA01D230EE200A7047000091
:100AE00070B505462DED068B56495548C96800EB93
:100AF000C100D0ED010A90ED000A284603F09AFDEE
:100B0000B5F92C0600EE100AB8EEC00ADFED4E0A69
:100B100005F5806420EE20AA84ED8EAA4B4EB6F92E
:100B20000000FFF7B2FD9FED4A8B53EC182BFFF747
:100B3000B5FC41EC190B9FED480A3AEE000A10EEA5
:100B4000100AFFF7E6FD53EC192BFFF700FCFFF747
:100B500023FE00EE100A9FED41AAF0EE4A0AFFF7CD
:100B6000AFFF84ED780AB6F90000FFF78EFD53EC75
:100B7000182BFFF793FC94ED8E0ADFED390A41EC58
:100B8000190B30EE200A10EE100AFFF7C2FD53ECED
:100B9000192BFFF7DCFBFFF7FFFD00EE100AF0EE6C
:100BA0004A0AFFF78DFF84ED790AB6F90000FFF7D6
:100BB0006CFD53EC182BFFF771FC94ED8E0ADFED02
:100BC000290A41EC190B30EE200A10EE100AFFF74B
:100BD000A0FD53EC192BFFF7BAFBFFF7DDFD00EE8C
:100BE000100AF0EE4A0AFFF76BFF84ED7A0AB6F9B5
:100BF0000000FFF74AFD53EC182BFFF74FFC94ED74
:100C00008E0ADFED190A41EC180B30EE200A10EEC7
:100C1000100AFFF77EFD53EC182BFFF798FBFFF748
:100C2000BBFD00EE100AF0EE4A0AFFF749FF84ED23
:100C30007B0A2846BDEC068BBDE8704004F0D4BCAE
:100C400020110020800000200000B6410400002098
:100C50000000000000C0364000507B4500F8FF4512
:100C60000020E9440030AB4500D08D4510B5044666
:100C7000204600F01BFA04F5806080ED8F0A002109
:100C800094F9DC25D0ED8F0A00EE102A04EB8102E6
:100C900002F58062B8EEC00A20EE200A82ED7C0ADE
:100CA000491C0429ECDB10BD2DE9F04706462DED6B
:100CB000028B0025DFF8D0909FED348A281D00EBD1
:100CC000800006EB800706EB8508F86808F5806869
:100CD0000088D8ED780A00EE100A05EB450000EB1D
:100CE000051006EB8004B8EE400A04F5437003F0EB
:100CF000E5F996F8580608B184EDCB8AF868D4ED8A
:100D0000CB0AB0F9020000EE100A04F23C40B8EE43
:100D1000C00A03F017FB304608F008F898ED7C0A8B
:100D200004F1AC00F0EE480A03F00CFB99F8000067
:100D300058B196F9DC054FF6665110FB01F000EE54
:100D4000100AB8EEC00A84ED330A99F8010008B120
:100D500084ED338A05EB850006EB8000D4ED330A81
:100D6000C068B0F9020000EE100A04F5EE70B8EEAB
:100D7000C00A03F0E7FA6D1CEDB2042D9ED3BDEC62
:100D8000028BBDE8F087000080000020000000001A
:100D9000FEE70000014800F0B7BC0000B0040020EE
:100DA000014800F0B1BC0000B0040020014800F090
:100DB000ABBC0000D8040020014800F0A5BC000036
:100DC000D804002038B50E4C40F2FF1525600825E8
:100DD00025610025E560A5600A4C050A2570607054
:100DE000080AA070E170100A20716271180AA071DF
:100DF000E3716B4622460249034800F0FFFA38BD12
:100E0000E801002036000020B004002038B50E4C68
:100E10004FF400752560082525610025E560A56073
:100E20000A4C050A25706070080AA070E170100A6B
:100E300020716271180AA071E3716B462246024963
:100E4000034800F0DBFA38BDB80100202E00002076
:100E5000B004002038B50E4C40F2FF152560002587
:100E6000A560E560082525610A4C050A25706070BB
:100E7000080AA070E170100A20716271180AA0714E
:100E8000E3716B4622460249034800F0B7FA38BDC9
:100E9000D00100203E000020D804002010B55C4A9C
:100EA00010789FED5C1A11460028D1ED030A80EE00
:100EB000810A07D0C2ED050AFDEEC00AC2ED020AA2
:100EC0000020107082ED030ADFED530A9068B42809
:100ED00052DDA0F1B40109B2D18001EE100AB8EEE2
:100EE000C11AB4EEC10AF1EE10FA0DDD10EE103A9F
:100EF0004A4CA34208DA00EE900AF8EEE00A30EE1F
:100F0000600A82ED030A7BE0B5EEC00AF1EE10FA4A
:100F100015DD01EE101AB8EEC11AB4EEC10AF1EEF9
:100F200010FA0CD800EE901AF8EEE00A30EEC00A83
:100F3000DFED3B0A30EEC00A82ED030A60E001EE0D
:100F4000101AB8EEC11AB4EEC10AF1EE10FA57DD6C
:100F500001EE100AB8EEC11AB4EEC10AF1EE10FAB1
:100F60004ED201EE101AB8EEC11A30EE410A30EE40
:100F7000200A82ED030A43E000F1B40109B2D180F6
:100F800001EE100AB8EEC11AB4EEC10AF1EE10FA81
:100F900011DD01EE101AB8EEC11AB4EEC10AF1EE7D
:100FA00010FA08D200EE900AF8EEE00A30EE600A7D
:100FB00082ED030A24E001EE101AB8EEC11AB4EE75
:100FC000C10AF1EE10FA0ADB01EE101AB8EEC11AEE
:100FD00031EE400A30EEC00A82ED030A10E000EE66
:100FE000900AF8EEE00AB4EEE00AF1EE10FA07D843
:100FF00000EE900AF8EEE00A30EE600A82ED030A95
:1010000092ED030ABDEEC00A10EE100A00B210BD48
:10101000000000200000C842000034C30000B443B8
:101020000000344330B500EB80030C4830F8134027
:1010300002EB430004814C780D7844EA052422F841
:1010400013404A790B7942EA03228280CA788B786E
:1010500042EA032242808979817130BD000200207A
:10106000104B1149DA68B1F90010002A0AD0102A91
:101070000DD0122A0BD0092A0FD0B0F82C06084444
:1010800000B2704738201881383908B27047B0F87C
:101090002C065A31084400B270474E2018810C319A
:1010A00008B27047800000200400002010B50446FC
:1010B0002DED048B204600F046F810EE100AFFF7E5
:1010C00028FB9FED189B41EC100BB0EE491AF0EE97
:1010D000691A05F099FCB0EE408AF0EE608A20466D
:1010E00000F024F810EE100AFFF713FB41EC100B90
:1010F000B0EE491AF0EE691A05F086FC53EC182B95
:1011000051EC100BFFF723F941EC100B06F0D0FB6C
:1011100051EC100BFFF740FBBDEC048B00EE100A06
:1011200010BD0000000000000000004000F58061DC
:10113000B0F90000D1ED890A00EE100AB8EEC00A3D
:1011400030EEC00A704700F58061B0F90200D1EDC1
:101150008A0A00EE100AB8EEC00A30EEC00A7047E4
:101160002DE9F04104462D4FA06801250026C07AE4
:10117000012814D002283AD0032830D1204602F0AA
:1011800083FF00231A4619461846FFF73FFEBDE8C5
:10119000F04100231A4619461846FFF75BBE204669
:1011A00002F072FF84F8CD55386808F031F984F800
:1011B000DE5594F8DD0510B1204608F0D9FC84F81E
:1011C000DD65204607F0DCFAA068807A012808D0A7
:1011D000022809D0032802D1022084F8CC05BDE8FA
:1011E000F08184F8CC55FAE784F8CC65F7E720461F
:1011F00002F04AFF84F8CD65386808F0EFF884F80B
:10120000DD5594F8DE0510B1204607F0DDF884F8CE
:10121000DE652046BDE8F04107F09AB95000002095
:10122000014800F0B1BD000088070020014800F02F
:10123000ABBD0000E8070020014800F0A5BD00009C
:1012400048080020014800F09FBD0000A8080020C9
:101250000168CAB2103A1823B2FBF3F2064B9B5C4A
:10126000C3656FF30901032A02D9091D816500E0F6
:101270008165806D7047000058AA000810B50146CE
:1012800000208A6A8B694FF0C074002B0ED0B3F532
:10129000005F1AD062B3012A2AD0022A28D0032A7A
:1012A00003D1C96AC90100D5012010BD1AB1012AB4
:1012B00006D0022AF9D1C96AC901F6D5012010BDAC
:1012C000C96AA142FBD1012010BD52B1012A0AD046
:1012D000022A06D0032AF7D1C96AA142F4D101201B
:1012E00010BD012010BDC96AC901FBD5012010BD88
:1012F000012010BD30B50468256825F480252560DF
:10130000046863608368402B04D0036899600068B8
:10131000C26030BD03689A600068C16030BD70472C
:1013200072B6FEE710B52DED028B00EE900AF8EED6
:10133000E00A30EEC08A18EE100AFFF7EAF941EC35
:10134000100B05F055FB9FED111B51EC100B53ECEE
:10135000112BFFF709FA13D218EE100AFFF7D9F98B
:1013600041EC100B05F044FB9FED0A1B51EC100BF8
:1013700053EC112BFFF78FF8FFF70EFA08EE100A67
:10138000B0EE480ABDEC028B10BD0000000000006A
:101390000000B040000000000000C04030B500EB8D
:1013A00080030C4830F8134002EB430004814C7872
:1013B0000D7844EA052422F813404A790B7942EA71
:1013C00003228280CA788B7842EA0322428089799C
:1013D000817130BD3202002090F82020012A07D010
:1013E000022A05D0416A41F4802141620120704700
:1013F000006842690A43426100207047F0B590F8E6
:1014000020500468A468012D07D0022D05D0416A40
:1014100041F4802141620120F0BD04F0806504F0B8
:101420000066354301D1E5005BD5C4F30164022CAD
:1014300005D9416A41F4000141620120F0BD012556
:10144000A5401D608B684FF4C0759BB1CE6805EB5D
:10145000041733434E6843EAC6030668F3514FF45A
:10146000C273076803EB04130E69FE50097D01295E
:1014700009D00DE00E88CB6805EB041743EA46530C
:101480000668F351EBE70168CE5846F48076CE50FB
:101490001179D379567941EA036193791B0443EAC0
:1014A000062319434FF4C676036806EB04169951D8
:1014B0001178D37841EA0361937852781B0443EAA8
:1014C000022211434FF4C473026803EB0413D1509A
:1014D000006805EB0411425842F00102425000201E
:1014E000F0BD416A41F4001141620120F0BD0000ED
:1014F00010B590F82020012A07D0022A05D0416AB1
:1015000041F480214162012010BD3C4800F500708B
:10151000026842F001020260026822F47C5202601A
:1015200002684B6A42EA032202600A7D02F01F034E
:1015300001229A40C3699343C361A0F50070CB694F
:10154000B3B9D0F80C329343C0F80C328C894B6895
:1015500064F31F434C6900EBC404C4F840320C89A7
:101560000B6864F31F434C6900EBC404C4F84432B5
:10157000CB69012B16D1D0F80C321343C0F80C32D2
:101580000C884B6864F31F434C6900EBC404C4F837
:1015900040320C89CB6864F31F434C6900EBC404F0
:1015A000C4F844328B697BB1D0F804321343C0F8DD
:1015B00004320B6973B1D0F814321343C0F81432FB
:1015C000096A01290CD010E0D0F804329343C0F826
:1015D0000432EEE7D0F814329343C0F81432EFE748
:1015E000D0F81C121143C0F81C12D0F8001221F0E0
:1015F0000101C0F80012002010BD0000006400408E
:10160000704730B590F82040012C07D0022C05D04F
:10161000416A41F480214162012030BD21B104685A
:101620002469A4075FD003E00468E468A40754D0E9
:101630004FF4D874056804EB01142D5905F0040526
:101640009560F5B305682D59ED08556005682C596E
:1016500004F00204D4604FF4DA74056804EB01145A
:101660002D5905F00F05156105682D59C5F307259E
:10167000956105682C59240C54614FF4DC720468A0
:1016800002EB0112A4581C700468A458240A5C7070
:101690000468A458240C9C700468A258120EDA70D6
:1016A0004FF4DE72046802EB0112A4581C71046846
:1016B000A458240A5C710468A458240C9C71046822
:1016C00000E016E0A258120EDA71B9B100680169A3
:1016D00041F020010161002030BD416A41F4001158
:1016E0004162012030BD416A41F400114162012094
:1016F00030BD05682D596D0D1560A7E70068C168FC
:1017000041F02001C160E6E72DE9F05F05460024C5
:1017100028684669D0F804908768D0F80CA0D0F803
:1017200010B0D0F81880F10748D0F90714D0012183
:101730008160B80703D5284600F0C6FA0CE07807A8
:1017400002D54FF4006407E0380702D54FF4805407
:1017500002E0284600F0B7FAF80516D529684FF4DC
:1017600080708860B80503D5284600F0AFFA0CE019
:10177000780502D544F4005407E0380502D544F456
:10178000804402E0284600F0A0FAF80316D5296844
:101790004FF480308860B80303D5284600F098FAEB
:1017A0000CE0780302D544F4004407E0380302D586
:1017B00044F4803402E0284600F089FA300707D567
:1017C0005FEACA6004D544F4007429681020C86038
:1017D00070074FF0080707D55FEA0A7004D528683C
:1017E000C760284600F0C8F9B00706D52868C06869
:1017F000800702D0284600F0C1F9700607D55FEADD
:10180000CB6004D544F48064296810200861B006D8
:1018100007D55FEA0B7004D528680761284600F0F9
:1018200023FAF00606D528680069800702D028460A
:1018300000F01BFAB00308D55FEAC96005D5296836
:1018400010204860284600F011FAF00307D55FEA3F
:10185000097004D528684760284600F03AFA300439
:1018600046D55FEA497040D5F00504D55FEAC870F7
:1018700001D044F00104B00504D55FEA887001D5B9
:1018800044F00204700504D55FEA487001D544F0C5
:101890000404300529D518F0700F26D008F0700028
:1018A000402815D006DC102809D020280AD030287E
:1018B00016D10AE050280ED0602811D10EE044F075
:1018C00008040DE044F010040AE044F0200407E0AE
:1018D00044F0400404E044F0800401E044F48074E7
:1018E0002868816921F070018161296804204860BD
:1018F000002C05D0686A204368622846FFF780FE06
:10190000BDE8F09F70B50446002C03D094F8200089
:1019100010B104E0012070BD204600F09DF8206861
:10192000016841F00101016000F0BCFC054605269C
:101930000CE000F0B7FC401B0A2807D9606A40F4AD
:101940000030606284F82060012070BD206840682B
:10195000C007EED02068016821F00201016000F0AC
:10196000A1FC05460CE000F09DFC401B0A2807D9AD
:10197000606A40F40030606284F82060012070BD2D
:10198000206840688007EED4207E01283FD0206880
:10199000016821F080010160607E01283DD020684F
:1019A000016821F040010160A07E01283BD0206841
:1019B000016821F020010160E07E012839D0206813
:1019C000016841F010010160207F012837D02068B4
:1019D000016821F008010160607F012835D020688E
:1019E000016821F004010160D4E902010843D4E94F
:1019F0000412114308436168491E08432168C86105
:101A000000206062012084F82000002070BD206862
:101A1000016841F080010160BEE72068016841F083
:101A200040010160C0E72068016841F020010160C9
:101A3000C2E72068016821F010010160C4E7206856
:101A4000016841F008010160C6E72068016841F0C3
:101A500004010160C8E700002DE9F04186B00446AA
:101A6000142101A8FEF768FC3E4B3F4ADFF8F080E6
:101A7000186821683C4C03260227401C10320025C0
:101A80004FF0090C41452FD11860012807D110688B
:101A900040F000701060106800F000700090206846
:101AA00040F008002060206800F0080000900196D7
:101AB000029703950496CDF814C001A92B4800F0B5
:101AC000EDFA00220521142000F08AFC142000F019
:101AD00079FC00220521152000F082FC152000F081
:101AE00071FC06B0BDE8F081DFF884804145F8D193
:101AF000116841F080611160116801F0806100910E
:101B00001860012807D1106840F00070106010685C
:101B100000F000700090206840F002002060206813
:101B200000F0020000904FF440500190029703959E
:101B30000496CDF814C001A90E4800F0AFFA0022B7
:101B40000521402000F04CFC402000F03BFC00222E
:101B50000521412000F044FC412000F033FCC0E7A7
:101B6000006400406400002030380240000C024055
:101B700000680040000402407047000000B58FB0CC
:101B80000068334988422ED1324B08AA00213248DE
:101B9000FFF737FD0898A0F20120052809D2DFE8F9
:101BA00000F0030A10161C002C4A2A490020FFF7F7
:101BB00039FA0FB000BD294A26490120FFF732FA51
:101BC000F7E7264A23490220FFF72CFAF1E7234AD8
:101BD00020490320FFF726FAEBE720491D4828316A
:101BE00001F0EAFEE5E71E498842E2D1194B01AA5D
:101BF000DB1D00211B48FFF704FD0198A0F50070D4
:101C000005380CD0012812D0022818D00328D0D1D2
:101C1000124A10493232C91DFFF7C0FBC9E70F4A0B
:101C20000C493232C91D0020FFF7B8FBC1E70B4A4F
:101C300008493232C91D0120FFF7B0FBB9E7074A56
:101C400004493232C91D0220FFF7A8FBB1E70000AA
:101C50000064004018000020B004002000020020B2
:101C600000680040D804002070477047704770B586
:101C7000044694F82000012805D0606A40F4002052
:101C80006062012070BD022084F820002068016895
:101C900021F00101016000F005FB05460DE000F0B8
:101CA00001FB401B0A2808D9606A40F400306062DA
:101CB000052084F82000012070BD20684068C0071E
:101CC000EDD1606270BD70477047704770477047D4
:101CD000704770472DE9F0410446A76D00F0E2FA25
:101CE000054694F835000026022806D0802060655D
:101CF00084F834600120BDE8F0812068016821F09B
:101D0000160101602068416921F080014161206C69
:101D100008B9A06C20B12068016821F008010160B9
:101D20002068016821F0010101600BE000F0BAFABF
:101D3000401B052806D9202034342062032060701F
:101D40002670D8E720680068C007EFD134343F2000
:101D500094F828108840B860012060702670002038
:101D6000C9E790F83510022903D080214165012090
:101D70007047052180F835100068016821F00101E5
:101D800001600020704700002DE9F84304464FF041
:101D90000009CDF800906F484FF416510068B0FB71
:101DA000F1F7A56D2E6894F85C00082202FA00F1A4
:101DB000314210D02068016849070CD5016821F034
:101DC0000401016094F85C0002FA00F1A960606D02
:101DD00040F00100606594F85C104FF0010808FACB
:101DE00001F0304208D021684969090604D5A8608D
:101DF000606D40F00200606594F85C10042088403B
:101E0000304208D021680968890704D5A860606D50
:101E100040F00400606594F85C1010208840304267
:101E200020D02168096809071CD5A86020680168CE
:101E300049030CD50068000304D4216C91B12046FD
:101E400088470FE0A16C69B1204688470AE0016825
:101E5000C90503D4016821F008010160216C09B1B2
:101E60002046884794F85C102020884030424CD0AF
:101E700021680968C90648D5A86094F83500052886
:101E80000BD020680168490330D50068000328D4CE
:101E9000616C51B32046884737E02068016821F023
:101EA000160101602068416921F080014161206CC8
:101EB00008B9A06C20B12068016821F00801016018
:101EC00094F85C103F208840A86084F8358084F83E
:101ED0003490216D00293BD001B02046BDE8F0438D
:101EE0000847E16B09B1204688470EE00168C90543
:101EF00007D4016821F01001016084F8358084F86E
:101F00003490E16B09B120468847606D00281FD0EE
:101F1000606DC00714D0052084F835002068016882
:101F200021F0010101600098401C0090B84203D8E4
:101F300020680068C007F6D184F8358084F83490B2
:101F4000E16C002904D001B02046BDE8F043084709
:101F5000BDE8F883680000202DE9F041044600F058
:101F6000A1F905465CB1022084F83500002684F80A
:101F700034602068016821F0010101600DE001205A
:101F8000BDE8F08100F08EF9401B052805D920201E
:101F90006065032084F83500F2E720680068C00718
:101FA000F0D121680A6820480240D4E901031843AF
:101FB000D4E903352B43184363691843A3691843D5
:101FC000E3691843236A18431043626A042A03D161
:101FD000D4E90B231A43104308602068406920F0BD
:101FE0000700656A29460543012704290DD1A06A27
:101FF0000543E06A48B12046FFF740F928B1402088
:10200000606584F835700120BAE720684561204694
:10201000FFF71EF994F85C203F21914081606665CE
:1020200084F835700020ABE73F8010F02DE9F041D7
:1020300004460025A66D94F8340001280DD0012037
:1020400084F8340094F835700020012F07D084F80C
:10205000340002252846BDE8F0810220FBE7022774
:1020600084F8357060652046FFF744F994F85C10F9
:102070003F208840B0602068016841F0160101608F
:10208000206C20B12068016841F0080101602068DF
:10209000016841F001010160DCE700002DE9F84F23
:1020A0000022DFF8B0914FF0010803274FF00F0C2A
:1020B00009F1040AA9F1040B08FA02F50B682B4098
:1020C000AB426ED10C7904F00304012C01D0022C38
:1020D00015D18668540007FA04FE26EA0E06D1F8E8
:1020E0000CE00EFA04FE4EEA060EC0F808E0446862
:1020F000AC430D79C5F300159540254345600C7937
:10210000E443A40708D0C568540007FA04F6B543B1
:102110008E68A6402E43C6600C7904F00304022C9E
:1021200011D1D40800EB8406356A5407E40E0CFA8A
:1021300004FE25EA0E05D1F810E00EFA04FE4EEA80
:10214000050EC6F820E00568540007FA04F6B5430A
:102150000E7906F00306A6402E4306604C6814F480
:10216000403F71D03C4C256845F48045256024688B
:1021700004F480440094394C22F003052E19D6F85B
:10218000085894074FEA147E0CFA0EF4A543344C19
:10219000A04201D100242EE0324CA04202D1012401
:1021A00029E051E0304CA04201D1022423E02F4C21
:1021B000A04201D103241EE02D4CA04201D10424F1
:1021C00019E02C4CA04201D1052414E02A4CA04275
:1021D00001D106240FE0294CA04201D107240AE0D6
:1021E000274CA04201D1082405E0264CA04201D191
:1021F000092400E00A2404FA0EF42C43C6F8084827
:10220000D9F800409C434D68ED0200D51C43C9F845
:102210000040DAF800409C434D68AD0200D51C43F5
:10222000CAF80040DBF800409C434D68AD0300D580
:102230001C43CBF80040074D083D2C689C434E687A
:10224000F60300D51C432C60521C102AFFF434AF57
:10225000BDE8F88F083C014044380240003001409E
:10226000000002400004024000080240000C02404E
:10227000001002400014024000180240001C0240FE
:1022800000200240002402400069084201D00120E1
:10229000704700207047002A01D08161704709040F
:1022A000816170470148806870470000400100204C
:1022B0000248816802781144816070474001002023
:1022C00010B50B48016841F400710160016841F4E8
:1022D00080610160016841F480710160032000F0B9
:1022E0009FF80F2000F006F800F050F8002010BD15
:1022F000003C024030B587B0054600241E48016806
:1023000041F010010160006800F01000009001A988
:1023100002A800F03DF90598A8B100F05DF9400071
:102320001649B0FBF1F1491E1648154A026040F209
:10233000E732C260416004618460846100F08CFC1B
:1023400004461CB115E000F047F9E9E70D4800F03C
:10235000EFFC04466CB9362000F034F8102D07D29B
:1023600000222946362000F03BF80748056000E0CF
:10237000012407B0204630BD4038024040420F00E3
:1023800000100040080900204401002082B00C48E1
:10239000016841F480410160006800F480400190D0
:1023A0000748001F016841F080510160006800F09B
:1023B0008050019000220F21901E02B000F010B852
:1023C00044380240002809DB00F01F02012191403F
:1023D0004009800000F1E020C0F8001170470000C3
:1023E000F0B40D460D4B1B68C3F30223C3F1070481
:1023F000042C00D90424191D072901D2002300E070
:10240000DB1E012606FA04F1491E294099409E4030
:10241000761E16403143F0BC03F067BF0CED00E0C0
:1024200000F00701054A10684FF6FF03184040EA24
:102430000120034908431060704700000CED00E0E4
:102440000000FA052DE9F04704460D46002C13D094
:10245000DFF82891D9F80000EFB200F00F00A84291
:102460000CD289F80070D9F8000000F00F00A842E3
:1024700004D00120BDE8F0870120FBE72068404E32
:10248000810712D5400703D5306840F4E050306032
:102490002078000703D5306840F460403060306831
:1024A000A16820F0F000084330602078C00731D0E8
:1024B000334960680839012808D002280BD0032866
:1024C00009D0096889070BD40120D3E7096889037B
:1024D00006D40120CEE70968890101D40120C9E7AB
:1024E000316821F0030101433160FFF7DBFE8046D4
:1024F00041F2883A07E0FFF7D5FEA0EB080050450F
:1025000001D90320B6E73068616800F00C00B0EB39
:10251000810FF0D1D9F8000000F00F00A84209D9CE
:1025200089F80070D9F8000000F00F00A84201D02F
:1025300001209FE72078400705D53068E16820F446
:10254000E050084330602078000706D530682169E4
:1025500020F4604040EAC100306000F05DF831686E
:10256000084AC1F30311515CC84007490860074895
:102570000068FFF7BFFE00207CE70000003C02403F
:102580000838024028AA0008680000204401002002
:102590000F2202600B4A136803F0030343601368C1
:1025A00003F0F0038360136803F4E053C360126820
:1025B00002F46042D20802610348006800F00F0094
:1025C0000860704708380240003C0240014800683B
:1025D000704700006800002000B5FFF7F7FF0449CE
:1025E0000968044AC1F38221515CC84000BD000063
:1025F0000838024038AA000800B5FFF7E7FF044991
:102600000968044AC1F34231515CC84000BD000072
:102610000838024038AA000810B51748006810F0C2
:102620000C01164816D0164B042912D0082911D1D6
:10263000114C241F216801F03F02216849020AD58C
:102640002068C0F38810A0FB03010023FDF72AFED9
:1026500009E0184610BD21680023C1F38811A1FBD1
:102660000001FDF71FFE2168C1F30141491C49002B
:10267000B0FBF1F010BD0000083802400024F40067
:10268000001BB7002DE9F84F0446002C13D020782A
:10269000DFF8A083C007A8F1040556D008F10400B4
:1026A0000168C1F3810101290CD00068C0F38100E9
:1026B000022803D00DE00120BDE8F88FD8F8000013
:1026C000400206D5286880033FD5606870BB0120B2
:1026D000F2E76068B0F5803F10D0B0F5A02F12D0BF
:1026E000286820F480302860286820F48020286042
:1026F0006068E0B1FFF7D6FD064614E0286840F4B4
:1027000080302860F4E7286840F48020286028683A
:1027100040F480302860EBE7FFF7C4FD801B64289D
:1027200001D90320C8E728688003F5D50DE0FFF73D
:10273000B9FD064606E0FFF7B5FD801B642801D908
:102740000320B9E728688003F5D42078BA4F8007C2
:102750004FF0000948D5B748001D016811F00C0F73
:1027600008D00068C0F38100022813D1D8F8000017
:1027700040020FD42868800704D5E068012801D002
:10278000012099E72868216920F0F80040EAC1009B
:10279000286029E0E068B8B101203860FFF782FDC9
:1027A000064606E0FFF77EFD801B022801D90320C4
:1027B00082E728688007F5D52868216920F0F800AD
:1027C00040EAC10028600FE0C7F80090FFF76AFDFB
:1027D000064606E0FFF766FD801B022801D90320AC
:1027E0006AE728688007F5D42078000729D5DFF844
:1027F00044A2924861690AF1700A89B1012101601D
:10280000FFF750FD064606E0FFF74CFD801B02284F
:1028100001D9032050E7DAF800008007F4D510E072
:10282000C0F80090FFF73EFD064606E0FFF73AFDD0
:10283000801B022801D903203EE7DAF80000800758
:10284000F4D42078400778D54FF0000A79483C301E
:102850000068C0000BD477483C30016841F08051DB
:102860000160006800F0805000904FF0010ADFF82E
:10287000D0B1DBF80000C00514D4DBF8000040F450
:102880008070CBF80000FFF70DFD064606E0FFF76D
:1028900009FD801B022801D903200DE7DBF80000A9
:1028A000C005F4D5634EA0686C3601280FD005280A
:1028B00012D0306820F001003060306820F0040051
:1028C0003060A068F8B1FFF7EDFC834617E0306890
:1028D00040F001003060F4E7306840F00400306000
:1028E000306840F001003060EBE7FFF7DBFCA0EB65
:1028F0000B0141F28830814201D90320DCE63068C7
:102900008007F2D510E0FFF7CDFC834609E0FFF722
:10291000C9FCA0EB0B0141F28830814201D90320B0
:10292000CAE630688007F2D4BAF1010F05D14148F8
:102930003C30016821F080510160A069C0B33D497D
:10294000091D09684FF0FF36C1F38101022946D005
:10295000022805D0C7F86090FFF7A4FC04463AE0CF
:10296000C7F86090FFF79EFC814607E0FFF79AFCEE
:10297000A0EB0900022801D903209DE62868800108
:10298000F4D4D4E907010843616AA26A890106EB1D
:10299000520241EA0241084394F82C1040EA0160D7
:1029A000C8F8000001203866FFF77CFC044607E009
:1029B0003DE0FFF777FC001B022801D903207BE6EE
:1029C00028688001F5D532E0FFF76CFC001B022877
:1029D00001D9032070E628688001F5D427E001289A
:1029E00023D0D8F80000E26900F4800191421AD1A6
:1029F000226A00F03F01914215D147F6C071626A28
:102A00000140B1EB821F0ED1A26A00F4403106EB07
:102A10005202B1EB024F06D194F82C1000F0706016
:102A2000B0EB016F03D0012046E6012044E6002010
:102A300042E600000438024000004742800E474250
:102A40000070004070B50446002C09D0606A002573
:102A500040B125616561A56294F8510040B10CE078
:102A6000012070BD6068B0F5827FF4D0E561F2E7C7
:102A700084F85050204600F045F8022084F85100B8
:102A80002068016821F040010160A088218900F4DC
:102A9000827001F404410843A18901F400610843F4
:102AA000217C01F002010843217D01F0010108436E
:102AB000218B01F400710843217F01F038010843A4
:102AC00094F8201001F080010843218D01F4005199
:102AD000084321680860A069042101EA104094F8C5
:102AE000241001F010010843216848602068C16982
:102AF00021F40061C1616565012084F85100002066
:102B000070BD000010B586B00446142101A8FDF781
:102B100013FC14492068884221D100211248026820
:102B200042F480120260006800F4801000900E48A9
:102B30001438026842F020020260006800F02000B1
:102B400000904FF4607001900220029003910320E6
:102B500004900520059001A90448FFF79FFA06B0EC
:102B600010BD0000005001404438024000140240F3
:102B70007047704710B590F83C20012A22D00122FE
:102B800080F83C20CA6800238C6822F440722243FB
:102B90004C6822F4806222430C6822F400622243D3
:102BA0000C6922F4805222434C6922F400522243E1
:102BB000C96922F480420A4301684A6480F83C30C3
:102BC000002010BD022010BD70B590F83C20012AF5
:102BD00031D0012680F83C60022280F83D20026856
:102BE0005468936824F070050C682C435460134CAF
:102BF0000268A24214D0B2F1804F11D0104CA24210
:102C00000ED0104CA2420BD00F4CA24208D00F4C59
:102C1000A24205D00E4CA24202D00E4CA24204D1D8
:102C200023F080034968194391603C3046700021CD
:102C30000170002070BD022070BD00000000014046
:102C40000004004000080040000C00400004014067
:102C5000004001400018004010B50446002C03D08D
:102C600094F83D0010B107E0012010BD002084F869
:102C70003C00204600F016F8022084F83D00211D9B
:102C8000206802F06DFD01203D3460726070A0701C
:102C9000E07020716071A071E071207220700020DE
:102CA00010BD000008B500681D4A1E49904208D1B9
:102CB000086840F001000860086800F0010000901A
:102CC00008BD184A121FB0F1804F14D0164B98421D
:102CD0001AD1106840F020001060106800F0200049
:102CE0000090002205213720FFF77AFBBDE808405D
:102CF0003720FFF767BB106840F0010010601068D4
:102D000000F00100009008BD084A9042FBD108681D
:102D100040F002000860086800F00200009008BD62
:102D2000000001404438024000140040000401400B
:102D300090F83D10012901D001207047022180F850
:102D40003D100168CA6842F00102CA600068144977
:102D5000884214D0B0F1804F11D0124988420ED071
:102D6000114988420BD01149884208D01049884245
:102D700005D01049884202D00F49884209D18168A4
:102D800001F00701062908D0016841F00101016046
:102D900003E0016841F0010101600020704700007C
:102DA000000001400004004000080040000C00400A
:102DB00000040140004001400018004070B5044686
:102DC000002594F83C00012817D0012684F83C60C7
:102DD000022084F83D002068826822F0770222F405
:102DE0007F4282600868502838D00DDC202853D0FC
:102DF00005DC90B3102811D14EE0022070BD3028C0
:102E00004AD040280AD13DE0602831D070280CD04B
:102E1000B0F5805F03D0B0F5005F12D001253C34DF
:102E2000667000202070284670BDCB68D1E9012172
:102E3000206802F008FD2068816841F07701816018
:102E4000EDE7CB68D1E90121206802F0FCFC2068A5
:102E5000816841F480418160E1E71DE0CA6849680A
:102E6000206802F0D3FD5021206802F0F6FCD6E77E
:102E7000CA684968206802F0DAFD6021206802F023
:102E8000ECFCCCE7CA684968206802F0BFFD40212D
:102E9000206802F0E2FCC2E722680146104602F018
:102EA000DCFCBCE7704770B50446206801694FF050
:102EB0000005C943890716D4C168C943890712D4DC
:102EC000E91E01610120207720688069800703D016
:102ED0002046FFF7E7FF05E0204600F0F7F8204620
:102EE00000F087F9257720680169C943490718D49C
:102EF000C168C943490714D46FF00401016102207D
:102F000020772068806910F4407F03D02046FFF7C7
:102F1000C9FF05E0204600F0D9F8204600F069F925
:102F2000257720680169C943090717D4C168C943D7
:102F3000090713D46FF0080101610420207720688D
:102F4000C069800703D02046FFF7ACFF05E02046AC
:102F500000F0BCF8204600F04CF9257720680169A4
:102F6000C943C90618D4C168C943C90614D46FF04F
:102F700010010161082020772068C06910F4407FAB
:102F800003D02046FFF78EFF05E0204600F09EF8B4
:102F9000204600F02EF9257720680169C943C9074A
:102FA00008D1C168C943C90704D1891E01612046FF
:102FB00000F08EF920680169C943090609D4C16887
:102FC000C943090605D46FF0800101612046FFF76F
:102FD000CFFD20680169C943490609D4C168C943C6
:102FE000490605D46FF040010161204600F07AF9EE
:102FF00020680169C94389060BD4C168C9438906A1
:1030000007D46FF0200101612046BDE87040FFF752
:10301000B0BD70BD30B587B00446142102A8FDF7DD
:103020008BF9244D20680021234A02230124A84261
:1030300013D1106840F010001060106800F010000C
:103040000190D0140290039304910591069402A973
:103050001A48FFF723F807B030BDB0F1804F16D003
:10306000174CA042F7D1106840F4807010601068CF
:1030700000F480700190E420029003930491059184
:103080000320069002A90F48FFF708F8E3E710684D
:1030900040F001001060106800F0010001900F2066
:1030A0000290039304910591069402A90648FEF745
:1030B000F5FFD0E700000140303802400010024028
:1030C000000401400020024000000240704770B53B
:1030D00004460D46002694F83C0001280FD001203C
:1030E00084F83C006AB1042A1FD0082A32D00C2A86
:1030F00044D00126002084F83C00304670BD0220F8
:1031000070BD2946206802F0B1FB2068816941F05A
:10311000080181612068816921F0040181612068D2
:1031200081692A6911438161E4E72946206802F038
:10313000D1FB2068816941F4006181612068816967
:1031400021F480618161206881692A6941EA022154
:103150008161CFE72946206802F0F6FB2068C1694B
:1031600041F00801C1612068C16921F00401C16119
:103170002068C1692A691143C161BBE729462068FB
:1031800002F01AFC2068C16941F40061C161206845
:10319000C16921F48061C1612068C1692A6941EA7D
:1031A0000221C161A6E710B50446002C03D094F8B3
:1031B0003D0010B107E0012010BD002084F83C0064
:1031C000204600F015F8022084F83D00211D2068FB
:1031D00002F0C6FA01203D3460726070A070E070A9
:1031E00020716071A071E07120722070002010BD0C
:1031F0007047704710B50446002909D004290AD049
:1032000008290BD094F8410001280AD0012010BDF4
:1032100094F83E00F8E794F83F00F5E794F8400092
:10322000F2E70220A9B3042937D0082938D084F85E
:1032300041000122206802F0F9FA1E4920681E4A66
:10324000884201D0904203D1436C43F4004343646D
:103250002068884213D0B0F1804F10D017498842BF
:103260000DD0174988420AD01649884207D09042AB
:1032700005D01549884202D01449884213D181688B
:1032800001F00701062912D0016841F00101016037
:103290000DE0FFE784F83E00CBE784F83F00C8E785
:1032A00084F84000C5E7016841F001010160002099
:1032B00010BD000000000140000401400004004077
:1032C00000080040000C0040004001400018004091
:1032D00000680349884201D1FEF7EABF7047000049
:1032E000001000407047704770470000F8B5044672
:1032F00022681068D168536900F00F06002E08D1CB
:10330000850606D58D0604D52046BDE8F84002F0B6
:103310009BBC0025002E66D003F0010601F49077D7
:10332000374360D0C20705D0CA0503D5226C42F0EE
:1033300001022264420705D5DA0703D0226C42F06D
:1033400002022264820705D5DA0703D0226C42F01C
:1033500004022264020707D501F02002324303D0A1
:10336000226C42F008022264226C002A31D08006CE
:1033700004D5880602D5204602F066FC2068406924
:10338000C0F38010216C090700D438B3204602F046
:1033900008FC2068406940061CD52068143050E8BD
:1033A000001F21F0400140E80012002AF5D1A06B77
:1033B00060B157490165A06BFEF7D3FC002808D027
:1033C000A06B016D01B0BDE8F04008472046FFF753
:1033D0008BFFF8BD2046FFF787FFF8BD2046FFF7BB
:1033E00083FF2564F8BD236B012B7ED1C3067CD5FA
:1033F000CB067AD510685068009050694FF02003D2
:10340000400643D5A16B0868406880B20028E9D027
:10341000A28D8242E6D9E085C869B0F5807F2DD0C3
:1034200020680C3050E8001F21F4807140E8001241
:10343000002AF5D12068143050E8001F21F0010166
:1034400040E80012002AF5D12068143050E8001F2F
:1034500021F0400140E80012002AF5D184F83E3006
:10346000256320680C3050E8001F21F0100140E86F
:103470000012002AF5D1A06BFEF72CFCA08DE18D87
:10348000401A81B22046FFF72EFFF8BDA08DE18DD6
:10349000401A81B2E08D0028F7D00029F5D02068CD
:1034A0000C3050E8002F22F4907240E80026002EE5
:1034B000F5D12068143050E8002F22F0010240E8D6
:1034C0000026002EF5D184F83E30256320680C30AC
:1034D00050E8002F22F0100240E80023002BF5D125
:1034E0002046FFF700FFF8BDFFE7020606D50A06F3
:1034F00004D52046BDE8F84002F0FEBC4006F2D5F7
:103500004806F0D52046BDE8F84002F071BB000047
:10351000AD5A000870B50446002C04D094F83D0064
:10352000002510B106E0012070BD84F83C50204613
:1035300000F022F8242084F83D002068C16821F4BE
:103540000051C160204602F0E3FB2068016921F4CC
:10355000904101612068416921F02A0141612068A0
:10356000C16841F40051C1602564202084F83D0009
:1035700084F83E00002070BD2DE9F04F87B004466E
:10358000142102A8FCF7D8FE8D48DFF830B21038BD
:10359000D4F800A0DFF828C2022203210823894DB5
:1035A000002607154FF480794FF02068DA4558D18E
:1035B000DCF800A04AF0804ACCF800A0DCF800C09B
:1035C0000CF0804CCDF804C0D0F800C04CF0100CCA
:1035D000C0F800C0006800F010000190C80102901F
:1035E000039204960591069302A92846FEF756FD1C
:1035F000764D75482860C5F804804020A860EE60CC
:103600002F616E61AE61EE612E626E622846FEF73A
:10361000A3FC08B1FDF784FE6563AC636A486B4D9B
:10362000303060352860C5F80480AE60EE602F61F0
:103630006E61AE61C5F81C902E626E622846FEF780
:103640008BFC08B1FDF76CFEA563AC63002205217D
:103650005220FEF7C5FE5220FEF7B4FE07B0BDE8CB
:10366000F08FDFF86CB1DA453ED1DCF8009049F01C
:103670000049CCF80090DCF800C00CF0004CCDF80C
:1036800004C0D0F800C04CF0100CC0F800C00068B6
:1036900000F01000019002910392049605910693A8
:1036A00002A92846FEF7FAFC4748484D7830C03555
:1036B0002860C5F80480AE60EE602F616E61AE6177
:1036C000EE612E626E622846FEF746FC08B1FDF7F9
:1036D00027FEA563AC63002205215320FEF780FE80
:1036E0005320FEF76FFEB9E7354DDFF8E8C02D1D1A
:1036F000E2453CD12B6843F010032B602B6803F0AC
:1037000010030193036843F002030360006800F0B4
:1037100002000190C02002900392049605910720B8
:10372000069002A92C48FEF7B9FC2D4D2B482860C5
:103730004FF000606860AE60EE602F616E61AE6158
:10374000C5F81C904FF4403028626E622846FEF7A0
:1037500003FC08B1FDF7E4FDA563AC63002205217D
:103760002520FEF73DFE2520FEF72CFE76E71D4CBA
:10377000A245B8D12C6844F020042C602C6804F0D9
:1037800020040194046844F040040460006800F0E0
:10379000400001904FF484400290039204960591FA
:1037A000069302A91048FEF779FC00220521472064
:1037B000FEF716FE4720FEF705FE4FE700780040B3
:1037C0004038024000100240286002408807002074
:1037D000007C0040001001400004024040640240B0
:1037E000A8080020001401400018024090F83E3064
:1037F000202B01D00220704759B152B190F83C30D3
:10380000012B08D0012380F83C300023036302F031
:1038100055BB0120704702207047000010B50822F8
:103820001B491C48FFF7E2FF00282FD1184C263C0B
:1038300060784042607016488178427801EB02223D
:1038400015490A800279C37802EB03224A80A178E5
:1038500059B98179427901EB022100EE101AB8EED4
:10386000400A84ED050A0121A1708179407901EBBC
:10387000002000EE100AB8EE400A84ED030AFDF7BE
:103880000DFBA080BDE8104006F08EBB10BD00000F
:1038900026000020BC060020280A002070472DE9E1
:1038A000F84304460E4615461F4694F83D0020286E
:1038B00002D00220BDE8F883C6B1BDB194F83C0047
:1038C000012815D0012084F83C004FF00009C4F80D
:1038D0004090212084F83D00FEF7E4FC8046A5845A
:1038E000E584A068B0F5805F04D005E00120E1E741
:1038F0000220DFE7206920B13546002684F83C909D
:1039000013E00025FAE74346002280212046009775
:1039100002F021FB08B10320CCE79DB1216815F826
:10392000010B4860E08C401EE084E08C0028EAD166
:103930004346002240212046009702F00CFB40B194
:103940000320B7E736F8020B2168C0F3080048608F
:10395000E8E7202084F83D000020ABE790F83D30F8
:10396000202B01D002207047A9B1A2B190F83C30C1
:10397000012B12D001628284C284002101642122C1
:1039800080F83D2080F83C100068C16841F080015B
:10399000C16000207047012070470220704700007E
:1039A000012202490248FFF7D9BF00006D10002034
:1039B00078060020FEE700000A4A12880A81427851
:1039C000037842EA03220A804279037942EA032219
:1039D0008A80C278837842EA03224A80807988719B
:1039E000704700002802002010B50F480D49016003
:1039F0000321416000218160C1604FF40022026117
:103A00004FF440124261017641768176C1760177AA
:103A10004177FDF777FF002803D0BDE81040FDF7A0
:103A20007FBC10BD00640040B004002010B50F48FA
:103A30000D4901600321416000218160C1604FF4A4
:103A4000002202614FF44012426101764176817694
:103A5000C17601774177FDF755FF002803D0BDE817
:103A60001040FDF75DBC10BD00680040D804002088
:103A700008B51948016841F480010160016801F44A
:103A800080010091016841F400110160006800F4B8
:103A900000100090002205210C20FEF7A1FC0C2054
:103AA000FEF790FC002205210E20FEF799FC0E2067
:103AB000FEF788FC002205211120FEF791FC112061
:103AC000FEF780FC002205213A20FEF789FCBDE8C4
:103AD00008403A20FEF776BC3038024010B5B2B04C
:103AE0001C2227492BA8FCF70EFC00212BA805F06F
:103AF00048FC244C20601C2221491C3124A8FCF7DE
:103B000002FC002124A805F03CFC60601C221C493A
:103B100038311DA8FCF7F7FB00211DA805F031FC8A
:103B2000A0601C221649543116A8FCF7ECFB0021BA
:103B300016A805F026FCE0601C22114970310FA880
:103B4000FCF7E1FB00210FA805F01BFC20611C2203
:103B50000B498C3108A8FCF7D6FB002108A805F01A
:103B600010FC60611C220649A83101A8FCF7CBFBC0
:103B7000002101A805F005FCA06132B010BD0000D5
:103B800064A900084800002070B586B0142101A87F
:103B9000FCF7D2FB00243648016841F010010160B7
:103BA000016801F010010091016841F040010160DD
:103BB000016801F040010091016841F001010160DC
:103BC000016801F001010091016841F0020101600A
:103BD000016801F002010091016841F008010160F3
:103BE000016801F008010091016841F480710160F1
:103BF000016801F480710091016841F08001016069
:103C0000016801F080010091016841F0200101602C
:103C1000006800F020000090164E0022402130463F
:103C2000FEF739FB012501950294039501A912487D
:103C3000FEF734FA4020019002950394049401A900
:103C40003046FEF72BFA4FF4E050019002940395B2
:103C500001A90A48FEF722FA4FF44040019002946D
:103C6000039501A90648FEF719FA06B070BD0000D9
:103C7000303802400014024000200240001C024084
:103C8000000C024010B510480E4901604FF48271DB
:103C9000416000218160C160016141614FF40072A7
:103CA00082613022C2610162416281620A21C16285
:103CB000FEF7C8FE002803D0BDE81040FDF730BB7A
:103CC00010BD0000005001400005002010B596B066
:103CD00000241294139414941594109411941C219C
:103CE00009A8FCF729FB202101A8FCF725FB28489F
:103CF00026490160A821416084604FF47A71C16057
:103D0000046144618461FEF7A7FF08B1FDF708FB79
:103D10004FF48050129012A91D48FFF74FF808B1D8
:103D2000FDF7FEFA1A48FFF73EFA08B1FDF7F8FA78
:103D30001094119410A91648FEF746FF08B1FDF73C
:103D4000EFFA602009900A940B940C940D940E9451
:103D50000F94042209A90E48FFF7B9F908B1FDF73D
:103D6000DFFA019402940394049405944FF40050F4
:103D70000690089401A90648FEF7FCFE08B1FDF77D
:103D8000CFFA0348FFF746F916B010BD0000014016
:103D90005805002010B58EB000240A940B940C94A2
:103DA0000D94089409941C2101A8FCF7C5FA2A482F
:103DB0004FF08041016053214160846044F61F61EF
:103DC000C16004618461FEF747FF08B1FDF7A8FAFE
:103DD0004FF480500A900AA91F48FEF7EFFF08B180
:103DE000FDF79EFA1C48FFF7DEF908B1FDF798FAD7
:103DF0000894099408A91848FEF7E6FE08B1FDF7F3
:103E00008FFA60200190029403940594002201A986
:103E10001148FFF75CF908B1FDF782FA042201A905
:103E20000D48FFF754F908B1FDF77AFA082201A905
:103E30000948FFF74CF908B1FDF772FA0C2201A905
:103E40000548FFF744F908B1FDF76AFA0248FFF7A1
:103E5000E1F80EB010BD0000A00500201CB5002444
:103E6000009401940D480C4901602921416084604F
:103E700040F2E731C1608461FEF7EEFE08B1FDF764
:103E80004FFA0094019469460448FEF79DFE00280D
:103E900001D0FDF745FA1CBD00140040E8050020E4
:103EA00010B596B0002412941394149415941094A1
:103EB00011941C2109A8FCF73FFA202101A8FCF766
:103EC0003BFA344832490160A7214160846044F6DE
:103ED0001F61C160046144618461FEF7BDFE08B1E9
:103EE000FDF71EFA4FF48050129012A92948FEF7F0
:103EF00065FF08B1FDF714FA2648FFF754F908B139
:103F0000FDF70EFA1094119410A92248FEF75CFEFA
:103F100008B1FDF705FA602009900A940B940C94FF
:103F20000D940E940F94002209A91A48FFF7CFF8B8
:103F300008B1FDF7F5F9042209A91648FFF7C7F8FB
:103F400008B1FDF7EDF9082209A91248FFF7BFF8FB
:103F500008B1FDF7E5F90C2209A90E48FFF7B7F8FB
:103F600008B1FDF7DDF901940294039404940594DB
:103F70004FF400500690089401A90648FEF7FAFD98
:103F800008B1FDF7CDF90348FFF744F816B010BDAE
:103F9000000401403006002010B50C480A490160B9
:103FA0004FF4E131416000218160C16001610C2268
:103FB00042618161C161FFF7ADFA002803D0BDE81D
:103FC0001040FDF7ADB910BD007800407806002024
:103FD00010B50C480A4901604FF4E13141600021FD
:103FE0008160C16001610C2242618161C161FFF7A2
:103FF00091FA002803D0BDE81040FDF791B910BD3B
:10400000007C0040BC06002010B50C480A49016045
:104010000B49416000218160C16001610C22426155
:104020008161C161FFF776FA002803D0BDE8104036
:10403000FDF776B910BD0000001001400007002018
:10404000A086010010B50C480A4901604FF4E13127
:10405000416000218160C16001610C224261816187
:10406000C161FFF757FA002803D0BDE81040FDF703
:1040700057B910BD0014014044070020FEE7FEE7D9
:10408000012005F071F9FBE770B50646002404EB4A
:10409000440000EB041006EB800505F5437000F0CA
:1040A0007BFA05F23C4000F077FA05F5EE7000F07F
:1040B00073FA641CE4B2042CE9D370BD002851D01B
:1040C00090ED101A80ED111AD0ED0F1AC0ED101AF4
:1040D000C0ED060A80ED070A30EEC00A80ED0F0A37
:1040E00010EE101ADFED340AB1F18B4F03DD30EE24
:1040F000600A80ED0F0A90ED0F0A10EE101A11F110
:104100006A5F03D930EE200A80ED0F0A90ED010AB4
:10411000D0ED0F0A20EE201A80ED091A90ED0A0A60
:1041200090ED022A02EE200A80ED0A0A90ED0D2A97
:1041300080ED0E2A90ED0C2A80ED0D2A70EEE10A3A
:10414000C0ED0C0AD0ED031A61EEA01AC0ED0B1AF7
:10415000D0ED050AB4EEE00AF1EE10FA05DDC0ED8F
:104160000A0A0BE09FED150A7047F1EE600AB4EE03
:10417000E00AF1EE10FA01D2C0ED0A0A90ED0A0A47
:1041800031EE000A30EE210A80ED080AD0ED040A73
:10419000B4EEE00AF1EE10FA02DDC0ED080A08E024
:1041A000F1EE600AB4EEE00AF1EE10FA01D2C0EDD1
:1041B000080A90ED080A704700F8FF45000000006B
:1041C00010B504460A46002C1ED094ED101A84ED5A
:1041D000111A94ED0F1A84ED101AC4ED060A84ED3D
:1041E000070ABCEEC00A10EE100ABCEEE00A81B26B
:1041F00010EE100A80B204F041FC84ED0F0A207822
:1042000028B1012854D098E09FED4D0A10BDD4ED9F
:10421000010A20EE801A84ED091AD4ED0A0AD4EDC1
:10422000021A41EE800AC4ED0A0AD4ED0D1AC4ED5B
:104230000E1AD4ED0C1AC4ED0D1AD4ED101A30EE8E
:10424000610A84ED0C0AD4ED031A61EE801AC4ED04
:104250000B1A94ED050AF4EEC00AF1EE10FA02DD35
:1042600084ED0A0A08E0B1EE400AF4EEC00AF1EE6D
:1042700010FA01D284ED0A0A94ED0A0A31EE000A1E
:1042800030EE210A84ED080AD4ED040AB4EEE00A07
:10429000F1EE10FA02DDC4ED080A4EE0F1EE600A1C
:1042A000B4EEE00AF1EE10FA47D2C4ED080A44E099
:1042B000D4ED101A94ED011A70EE610A20EE811A05
:1042C00084ED091AD4ED020A60EE800AC4ED0A0AF0
:1042D00094ED0D2A84ED0E2A94ED0C2A84ED0D2A1E
:1042E000B0EE002A01EEC20AD4ED111A30EE210A16
:1042F00084ED0C0AD4ED031A21EE800A84ED0B0A3A
:1043000071EE200A30EE800AD4ED080A30EE200A61
:1043100084ED080AD4ED040AB4EEE00AF1EE10FAD6
:1043200002DDC4ED080A08E0F1EE600AB4EEE00A2E
:10433000F1EE10FA01D2C4ED080A94ED080A10BD9E
:10434000000000009FED902A002802D0417819B1AA
:104350001AE0B0EE420A704790ED0F1A8B4A11EE48
:10436000101ADFED8B1A914203DD31EE611A80EDF8
:104370000F1A90ED0F1A874A11EE101A914203D9C5
:1043800031EE211A80ED0F1AD0ED101AC0ED111A7E
:1043900090ED0F1A80ED101AC0ED060A80ED070AA5
:1043A00030EEC00AF7EE002A22EE800A02EE010A81
:1043B00080ED0F0A017821B1012951D002297CD06A
:1043C000DEE0D0ED010A60EE801AC0ED091AD0EDF2
:1043D0000A0A90ED022A42EE000AC0ED0A0A90EDA8
:1043E0000D2A80ED0E2A90ED0C2A80ED0D2A30EE7C
:1043F000410A80ED0C0A90ED031A21EE001A80EDBF
:104400000B1A90ED050AF4EEC00AF1EE10FA02DD87
:1044100080ED0A0A08E0B1EE400AF4EEC00AF1EEBF
:1044200010FA01D280ED0A0A90ED0A0A31EE800AF4
:1044300030EE010A80ED080AD0ED040AB4EEE00A7D
:10444000F1EE10FA02DDC0ED080A99E0F1EE600A23
:10445000B4EEE00AF1EE10FA01D2C0ED080A8FE0E6
:1044600070EE410A90ED012A60EE820AC0ED090A61
:1044700090ED022A22EE002A80ED0A2AD0ED0D2AC4
:10448000C0ED0E2AD0ED0C2AC0ED0D2AF0EE002A68
:1044900001EE620A30EE210A80ED0C0A90ED031A5B
:1044A00021EE000A80ED0B0A70EE820A30EE800ADF
:1044B000D0ED080A30EE200A00E015E080ED080A91
:1044C000D0ED040AB4EEE00AF1EE10FA02DDC0ED20
:1044D000080A55E0F1EE600AB4EEE00AF1EE10FAD7
:1044E0004ED2C0ED080A4BE070EE410A90ED011A81
:1044F00020EE811A80ED091AD0ED021A21EE800A11
:1045000080ED0A0AD0ED0D1AC0ED0E1AD0ED0C1A8E
:10451000C0ED0D1AC0ED0C0AD0ED031A61EEA01A21
:10452000C0ED0B1AD0ED050AB4EEE00AF1EE10FA78
:1045300002DDC0ED0A0A08E0F1EE600AB4EEE00A1E
:10454000F1EE10FA01D2C0ED0A0A90ED0A0A31EE3E
:10455000000A30EE210A80ED080AD0ED040AB4EE1C
:10456000E00AF1EE10FA02DDC0ED080A08E0F1EE13
:10457000600AB4EEE00AF1EE10FA01D2C0ED080ACA
:1045800090ED080A7047000000000000000034436E
:104590000000B443000034C3002819D09FED0D0A79
:1045A00080ED110A80ED100A80ED0F0A80ED0E0AF1
:1045B00080ED0D0A80ED0C0A80ED0B0A80ED0A0AF1
:1045C00080ED090A80ED080A80ED060A80ED070AF1
:1045D0007047000000000000002828D0002A26D0E4
:1045E000017092ED001A80ED011A92ED011A80ED32
:1045F000021A92ED021A80ED031A80ED040AC0ED52
:10460000050A9FED0B0A80ED0E0A80ED0D0A80ED84
:104610000C0A80ED080A80ED0B0A80ED0A0A80ED95
:10462000090A80ED110A80ED100A80ED0F0A70472B
:104630000000000070B505462DED0A8BF0EE608A93
:10464000DFEDBF0A80EE201A9FEDBE0A21EE000AC0
:10465000B0EE408A02F024F920EE280A05F58064C5
:1046600084ED890AB0EE480A03F05AF820EE280AD1
:1046700084ED8A0A2846FCF759FD84ED8C0A284609
:10468000FCF761FD84ED8D0A9FEDAF8B9FEDB09B34
:104690009FEDB1BAB5EEC00ABFEE00CAF1EE10FA56
:1046A00050DD94ED8CAAB5EEC0AAF1EE10FA49D215
:1046B00010EE100AFCF72DF841EC100B02F098F9FF
:1046C00051EC100BFCF768F80646C4F834021AEEF9
:1046D000100AFCF71EF841EC100B02F089F951ECBE
:1046E000100BFCF759F8C4F83002FCF712F841EC53
:1046F0001A0B3046FCF70DF841EC100BB0EE4A1ADD
:10470000F0EE6A1A01F070FF53EC182B51EC100B0D
:10471000FBF736FF53EC192BFBF7C0FEFBF7DAFF74
:1047200000B200EE100AB8EEC00A3BEE400A20EEDE
:104730000C0ABDEEC00A10EE100AA5F82C06BDEC5E
:104740000A8B70BDB5EEC00AF7EE00BAF1EE10FAB2
:104750004EDD94ED8CAAB5EEC0AAF1EE10FA47DD5D
:1047600010EE100AFBF7D5FF41EC100B02F040F9F8
:1047700051EC100BFCF710F80646C4F834021AEEA0
:10478000100AFBF7C6FF41EC100B02F031F951ECB7
:10479000100BFCF701F8C4F83002FBF7BAFF41EC4C
:1047A0001A0B3046FBF7B5FF41EC100BB0EE4A1A7E
:1047B000F0EE6A1A01F018FF53EC182B51EC100BB5
:1047C000FBF7DEFE53EC192BFBF768FEFBF782FFCD
:1047D00000B200EE100AB8EEC00A3BEE400A20EE2E
:1047E0002B0ABDEEC00A10EE100AA5F82C06A6E7AB
:1047F000B5EEC00AF1EE10FA4ED294ED8CAAB5EEE9
:10480000C0AAF1EE10FA47D210EE100AFBF781FFB2
:1048100041EC100B02F0ECF851EC100BFBF7BCFF75
:104820000646C4F834021AEE100AFBF772FF41EC98
:10483000100B02F0DDF851EC100BFBF7ADFFC4F8E4
:104840003002FBF766FF41EC1A0B3046FBF761FFC5
:1048500041EC100BB0EE4A1AF0EE6A1A01F0C4FEF9
:1048600053EC182B51EC100BFBF78AFE53EC192B71
:10487000FBF714FEFBF72EFF00B200EE100AB8EEB5
:10488000C00A30EE0B0A20EE0C0ABDEEC00A10EE94
:10489000100AA5F82C0652E7B5EEC00AF1EE10FAA0
:1048A000A5D294ED8CAAB5EEC0AAF1EE10FA9EDD69
:1048B00010EE100AFBF72DFF41EC100B02F098F8F8
:1048C00051EC100BFBF768FF0646C4F834021AEEF1
:1048D000100AFBF71EFF41EC100B02F089F851ECB7
:1048E000100BFBF759FFC4F83002FBF712FF41EC45
:1048F0001A0B3046FBF70DFF41EC100BB0EE4A1AD5
:10490000F0EE6A1A01F070FE53EC182B51EC100B0C
:10491000FBF736FE53EC192BFBF7C0FDFBF7DAFE75
:1049200000B200EE100AB8EEC00A30EE0B0A20EE1C
:104930002B0ABDEEC00A10EE100AA5F82C06FEE602
:1049400000003443DA0F494000000040FB210940D9
:1049500000000000008066400000B442002801DC36
:10496000404200B27047000070B5194CB4F9000025
:10497000FFF7F4FF4FF42F75A84217DCB4F90200DB
:10498000FFF7ECFFA84211DCB4F90400FFF7E6FFE3
:10499000A8420BDCB4F90600FFF7E0FFA84205DCF3
:1049A000A07A18B1E07A08B1002070BD0020208004
:1049B0006080A080E08020810221A172E172A0814C
:1049C000E0812082A074E074A082012070BD00000C
:1049D0005009002030B5174C23685D6945F040054B
:1049E0005D612368DC6844F01004DC60124C2368CD
:1049F0001D6825F001051D6003E01D6825F0010517
:104A00001D6023681D68ED07F7D125680B4BAB606F
:104A10002368D860206801612068426020680168CE
:104A200041F4802101602068016841F001010160CA
:104A300030BD000000070020A8080020041001403D
:104A400010B50C4B1968CA6822F40052CA600A4AB1
:104A500011680C6824F001040C601168486010684B
:104A6000016841F0010101601868C16841F400511A
:104A7000C16010BD00070020A80800202DE9F0410A
:104A800005462DED0A8B95F8CC059FEDF90A05F545
:104A9000806400287DD001287CD002287BD104F5D9
:104AA000F07484ED0A0A9FEDF39BB0EE490AF0EE34
:104AB000690A01F091FEB0EE408A94ED0A0AF0EE28
:104AC000608A9FEDEEAA20EE0A0A10EE100AFBF7AC
:104AD00020FE53EC182BFBF7E1FC41EC180B206A8D
:104AE000FBF717FE53EC182BFBF731FC41EC180BCE
:104AF000B0EE490AF0EE690A02F0AEFDB0EE409A5F
:104B000094ED0A0AF0EE609A20EE0A0A10EE100AFE
:104B1000FBF7FFFD53EC192BFBF7C0FC41EC190B25
:104B2000606AFBF7F6FD53EC192BFBF710FC41EC28
:104B3000100BB0EE481AF0EE681A01F055FD9FED2B
:104B4000D08B51EC100B53EC182BFBF719FD9FED9C
:104B5000CE9B53EC192BFBF7A1FCCD4EC6E900010F
:104B60009FEDCCCBB0EE4C0AF0EE6C0A01F034FEB7
:104B7000B0EE40BA94ED0A0AF0EE60BA20EE0A0AEE
:104B800010EE100AFBF7C5FD53EC1B2BFBF786FC60
:104B900002E0F1E14FE166E141EC1B0B206AFBF71B
:104BA000B8FD53EC1B2BFBF7D2FB41EC1B0BB0EE1B
:104BB0004C0AF0EE6C0A02F04FFDB0EE40CA94EDE4
:104BC0000A0AF0EE60CA20EE0A0A10EE100AFBF79D
:104BD000A0FD53EC1C2BFBF761FC41EC1C0B606A45
:104BE000FBF797FD53EC1C2BFBF7B1FB41EC100BD3
:104BF000B0EE4B1AF0EE6B1A01F0F6FC53EC182BEA
:104C000051EC100BFBF7BCFC53EC192BFBF746FCEB
:104C1000C6E902019FEDA1CBB0EE4C0AF0EE6C0AA2
:104C200001F0DAFDB0EE40BA94ED0A0AF0EE60BA97
:104C300020EE0A0A10EE100AFBF76BFD53EC1B2B5B
:104C4000FBF72CFC41EC1B0B206AFBF762FD53ECDD
:104C50001B2BFBF77CFB41EC1B0BB0EE4C0AF0EE80
:104C60006C0A02F0F9FCB0EE40CA94ED0A0AF0EECC
:104C700060CA20EE0A0A10EE100AFBF74AFD53EC58
:104C80001C2BFBF70BFC41EC1C0B606AFBF741FD96
:104C900053EC1C2BFBF75BFB41EC100BB0EE4B1AFB
:104CA000F0EE6B1A01F0A0FC53EC182B51EC100B3A
:104CB000FBF766FC53EC192BFBF7F0FBC6E904018C
:104CC0009FED78CBB0EE4C0AF0EE6C0A01F084FD5B
:104CD000B0EE40BA94ED0A0AF0EE60BA20EE0A0A8D
:104CE00010EE100AFBF715FD53EC1B2BFBF7D6FB60
:104CF00041EC1B0B206AFBF70CFD53EC1B2BFBF765
:104D000026FB41EC1B0BB0EE4C0AF0EE6C0A02F0F5
:104D1000A3FCB0EE40CA94ED0A0AF0EE60CA20EEA1
:104D20000A0A10EE100AFBF7F4FC53EC1C2BFBF7FD
:104D3000B5FB41EC1A0B606AFBF7EBFC53EC1A2B4A
:104D4000FBF705FB41EC100BB0EE4B1AF0EE6B1AC3
:104D500001F04AFC53EC182B51EC100BFBF710FC44
:104D600053EC192BFBF79AFBC6E9060196ED000BF5
:104D70009FED4E8B51EC100B53EC182BFBF78EFB79
:104D8000FBF70AFD00EE100ADFED4A0A30EE200ABA
:104D90009FED499AF0EE490AFBF792FE84ED000A76
:104DA00096ED021B53EC182B51EC110BFBF776FB25
:104DB000FBF7F2FC00EE100ADFED400A30EE200AAD
:104DC000F0EE490AFBF77CFE84ED010A96ED041B28
:104DD00053EC182B51EC110BFBF760FBFBF7DCFCE1
:104DE00000EE100ADFED360A30EE200AF0EE490A36
:104DF000FBF766FE84ED020A96ED061B53EC182BBA
:104E000051EC110BFBF74AFBFBF7C6FC00EE100A56
:104E1000DFED2C0A30EE200AF0EE490AFBF750FED7
:104E200084ED030A284600F0DFFBD5F80C0606F1F6
:104E30002007E0B15CE09FED240A84ED780A9FED45
:104E4000230A84ED790A9FED220A84ED7A0A9FED08
:104E5000210A84ED7B0A2049D4F8080288423DD912
:104E6000FF2085F8DC05BDEC0A8BBDE8F08139E058
:104E70000000000000000000008046C03946713E7E
:104E800000000040FB210940000000000080664057
:104E9000F8090020000000000080464000000000EB
:104EA00000E060400000000000E060C00000000082
:104EB00000C0364000A0FD4500F8FF450040BA455F
:104EC00000C0AC440000C34300E0DC450040364570
:104ED00000E8854500E0A344000020C1012085F8DA
:104EE000DC05C0E7D5F8100610B9D5F8140698B35C
:104EF000002005EB800101F5806191ED780A07EB58
:104F0000800181ED000A401C0428F2DB00249FEDA3
:104F10001E8B05EB840606F5806607EB840896ED8C
:104F2000780AD8ED000A30EE600A10EE100AFBF79E
:104F3000F0FB41EC100B01F05BFD53EC182B51EC36
:104F4000100BFBF7F9FB03D298ED000A86ED780A07
:104F5000641C042CDDDB86E7FFE7002007EB800103
:104F600091ED000A05EB800101F5806181ED780A81
:104F7000401C0428F2DBC9E784ED800A84ED810A35
:104F800084ED820A6FE70000000000000000364058
:104F900070B505462DED0A8B95F8CC059FEDFE0A00
:104FA00005F5806400287CD0B3EE03BADFEDFBBAD0
:104FB000DFEDFB8A012875D0022874D104F5C47492
:104FC00084ED200A9FEDF7ABB0EE4A0AF0EE6A0AD4
:104FD00002F042FBB0EE409A94ED200AF0EE609AA7
:104FE00020EE280A10EE100AFBF793FB53EC192B66
:104FF000FBF754FA41EC190BE06FFBF78AFB53EC1B
:10500000192BFBF7A4F941EC100B9FEDE8CBB0EEA8
:105010004C1AF0EE6C1A01F0F7FCB0EE409AF0EE8C
:10502000609AB0EE4A0AF0EE6A0A01F0D5FBB0EEE3
:1050300040AA94ED200AF0EE60AA20EE280A10EEB5
:10504000100AFBF766FB53EC1A2BFBF727FA41EC2F
:105050001A0BA06FFBF75DFB53EC1A2BFBF777F9EC
:1050600041EC100BB0EE4C1AF0EE6C1A01F0CCFCD7
:1050700053EC192B51EC100BFBF769F941EC100BB9
:1050800002F016FC05F2DC55B0EE409AF0EE609AA4
:1050900095F90000FBF7F9FA53EC192BFBF7FEF931
:1050A00002E0ECE161E15DE1FBF776FBA0669FEDDC
:1050B000C1ABB0EE4A0AF0EE6A0A02F0CDFAB0EEE9
:1050C000409A94ED200AF0EE609A20EE280A10EE45
:1050D000100AFBF71EFB53EC192BFBF7DFF941EC31
:1050E000190BE06FFBF715FB53EC192BFBF72FF9AE
:1050F00041EC100BB0EE4C1AF0EE6C1A01F084FC8F
:10510000B0EE409AF0EE609AB0EE4A0AF0EE6A0A0B
:1051100001F062FBB0EE40AA94ED200AF0EE60AA26
:1051200020EE280A10EE100AFBF7F3FA53EC1A2BC4
:10513000FBF7B4F941EC1A0BA06FFBF7EAFA53EC5A
:105140001A2BFBF704F941EC100BB0EE4C1AF0EE01
:105150006C1A01F059FC53EC192B51EC100BFBF7B6
:10516000F6F841EC100B02F0A3FBB0EE409AF0EE23
:10517000609A95F90000FBF788FA53EC192BFBF7BE
:105180008DF9FBF709FBE0669FED8CABB0EE4A0AA8
:10519000F0EE6A0A02F060FAB0EE409A94ED200A4E
:1051A000F0EE609A20EE280A10EE100AFBF7B1FA32
:1051B00053EC192BFBF772F941EC190BE06FFBF77D
:1051C000A8FA53EC192BFBF7C2F841EC100BB0EE28
:1051D0004C1AF0EE6C1A01F017FCB0EE409AF0EEAB
:1051E000609AB0EE4A0AF0EE6A0A01F0F5FAB0EE03
:1051F00040AA94ED200AF0EE60AA20EE280A10EEF4
:10520000100AFBF786FA53EC1A2BFBF747F941EC2F
:105210001A0BA06FFBF77DFA53EC1A2BFBF797F8EC
:1052200041EC100BB0EE4C1AF0EE6C1A01F0ECFBF6
:1052300053EC192B51EC100BFBF789F841EC100BD8
:1052400002F036FBB0EE409AF0EE609A95F900005D
:10525000FBF71BFA53EC192BFBF720F9FBF79CFA31
:1052600020679FED58ABB0EE4A0AF0EE6A0A02F0F2
:10527000F3F9B0EE409A94ED200AF0EE609A20EE39
:10528000280A10EE100AFBF744FA53EC192BFBF72F
:1052900005F941EC190BE06FFBF73BFA53EC192BC6
:1052A000FBF755F841EC100BB0EE4C1AF0EE6C1A0F
:1052B00001F0AAFBB0EE409AF0EE609AB0EE4A0A16
:1052C000F0EE6A0A01F088FAB0EE40AA94ED200AE6
:1052D000F0EE60AA20EE280A10EE100AFBF719FA89
:1052E00053EC1A2BFBF7DAF841EC1A0BA06FFBF723
:1052F00010FA53EC1A2BFBF72AF841EC100BB0EE26
:105300004C1AF0EE6C1A01F07FFB53EC192B51ECA8
:10531000100BFBF71CF841EC100B02F0C9FAB0EED1
:10532000409AF0EE609A95F90000FBF7AEF953EC65
:10533000192BFBF7B3F8FBF72FFA606794ED1E0A01
:10534000C0EE0B0A80EEAB0A20EE280A04ED070A35
:10535000D4ED1F0A80EE8B0AC0EE2B0A20EEA80ABD
:1053600004ED060ABDEC0A8B70BD04F5EC7494EDF7
:105370000C8A18EE100AFBF7CCF941EC100B01F087
:1053800037FBB0EE409AF0EE609A95F9DC05FBF73A
:105390007CF90E46054619E000000000000070424E
:1053A0003946713E00000000008046C00000000049
:1053B00000000040000000000080464000000000A7
:1053C00000E060400000000000E060C053EC192BDA
:1053D000FBF764F8FBF7E0F9A06118EE100AFBF7A1
:1053E00098F941EC100B01F003FB46EC115B53EC18
:1053F000102B51EC110BFBF751F8FBF7CDF9E061E5
:1054000018EE100AFBF785F941EC100B01F0F0FAE9
:1054100046EC115B53EC102B51EC110BFBF73EF8F3
:10542000FBF7BAF9206218EE100AFBF772F941ECAB
:10543000100B01F0DDFA46EC115B53EC102B51EC34
:10544000110BFBF72BF8FBF7A7F9606288EE0B0A4C
:10545000B6EE001AC0EE2B0A20EEA80AC0EE280A0B
:10546000B0EE000A60EE800A9FED0C0A60EE800A42
:1054700060EE810A80EE801A84ED001A72E784EDF6
:105480007C0A84ED7D0A84ED7E0A84ED7F0A28463D
:10549000BDEC0A8BBDE87040FEF7F6BDDA0F49405F
:1054A0002DE9F0410546002405EB840000F58060FD
:1054B000D0ED7C0A04EB840005EB8000C068B0F9F5
:1054C000020000EE100A04EB440000EB041005EBB0
:1054D0008000B8EEC00A00F5EE70FEF733FF641CE2
:1054E000042CE1DB002441F6FF7805EB840000F595
:1054F00080604146D0ED780A201D00EB800005EB6E
:105500008007F868008800EE100A04EB440000EB06
:10551000041005EB8006B8EE400A06F54370FEF76E
:105520004FFEF868D6EDCB0AB0F9020000EE100A83
:1055300006F23C40B8EEC00AFEF704FF641C042CDF
:10554000D3DBBDE8F081000070B501212248FCF7F3
:105550009BFE98B30020214C84F84706204D4FF461
:1055600000612846FCF790FE48B3002084F8480606
:105570004FF480512846FCF787FE28B3002084F8BA
:1055800049064FF480612846FCF77EFEF0B100200A
:1055900084F84A06134D4FF400412846FCF774FE88
:1055A000B0B1002084F84B064FF480412846FCF748
:1055B0006BFE78B1002084F84C0670BD00E001E07D
:1055C0000120C8E70120D1E70120D8E70120DFE76B
:1055D0000120E7E70120EEE700200240280A002032
:1055E000001C0240000C024070B505462DED028BF8
:1055F00005F5806090ED780AE86DB0F90000FBF7E2
:1056000091FE10EE100AFBF784F841EC100B01F04C
:10561000EFF99FED151B51EC100B53EC112BFBF721
:10562000A3F81DD200249FED128ADFED128A05EB4C
:10563000840606F5806696ED780A30EE080A86ED57
:10564000780AF0EE680AFBF73BFA86ED780A641CEC
:10565000042CECDBFF2085F8DC05BDEC028B70BD73
:10566000012085F8DC05F8E7000000000000A040FC
:10567000000080450000004610B5502080F31188DE
:10568000BFF34F8FBFF36F8F04F0B0FF18B1044921
:105690004FF080500860002080F3118810BD00009A
:1056A00004ED00E030B593B0302107A8FAF744FECE
:1056B000142102A8FAF740FE00251D48016841F0B8
:1056C00080510160006800F0805001901948016825
:1056D00041F440410160006800F440400190012025
:1056E00007900004089002240D9480010E9006207B
:1056F0000F90A820109011940420129007A8FCF796
:10570000C1FF08B1FBF70CFE0F2002900394049533
:105710004FF4A05005904FF480500690052102A848
:10572000FCF790FE002801D0FBF7FAFD13B030BD66
:1057300040380240007000400248016841F47001A6
:105740000160704788ED00E00148FDF7ACBB000048
:10575000080900200148FDF7A6BB0000E80500206D
:105760002DE9F0410268264D264E274FDFF89CC0F8
:10577000274B4FF08048A84209D0404507D0B0429F
:1057800005D0B84203D0604501D0984203D122F041
:1057900070044A682243A8421BD0404519D0B04249
:1057A00017D0B84215D0604513D0984211D0194C8B
:1057B000A0420ED0184CA0420BD0184CA04208D0EA
:1057C000174CA04205D0174CA04202D0164CA04264
:1057D00003D122F44074CA6822434C6922F080024B
:1057E000224302608A68C2620A688262A84201D0CB
:1057F000984201D10969016301214161BDE8F0814D
:10580000000001400004004000080040000C00407F
:1058100000040140004001400044014000480140B4
:1058200000180040001C00400020004010B501F0AE
:105830001F0101238B40046A9C430462036A8A406F
:105840001343036210BD10B5846824F47F4442EA18
:1058500003220A432243826010BD826822F0700254
:105860000A4342F00701816070470000F0B5026A08
:1058700022F001020262026A4368846924F0700423
:1058800024F003050C682C4322F002058A682A43A1
:105890000E4E0F4FB04201D0B84205D122F008059C
:1058A000CA682A4322F00402B04201D0B84207D1AC
:1058B00023F4807323F400734D691D438B692B43DC
:1058C00043608461496841630262F0BD00000140A9
:1058D00000040140F0B5026A22F010020262036A7D
:1058E0004268846924F4E04424F440740D6844EA76
:1058F000052423F020038D6843EA0513104D114E53
:10590000A84201D0B04206D123F08003CF6843EA19
:10591000071323F04003A84201D0B04209D122F47A
:10592000806222F400624D6942EA85028D6942EA92
:10593000850242608461496881630362F0BD0000B2
:105940000000014000040140F0B5026A22F48072B8
:105950000262026A4368C46924F0700424F00305FB
:105960000C682C4322F400728D6842EA0522104D27
:10597000104EA84201D0B04206D122F40062CF6896
:1059800042EA072222F48062A84201D0B04209D143
:1059900023F4805323F400534D6943EA05138D69C2
:1059A00043EA05134360C4614968C1630262F0BD04
:1059B000000001400004014030B5026A22F4805228
:1059C0000262046A4268C36923F4E04323F440732B
:1059D0000D6843EA052324F400548D6844EA053435
:1059E000084DA84202D0084DA84204D122F48042BA
:1059F0004D6942EA85124260C361496801640462EC
:105A000030BD0000000001400004014010B5036AF1
:105A1000046A24F001040462846924F0F00444EA76
:105A2000021423F00A020A438461026210BD10B519
:105A3000036A23F0100303628469036A24F4704448
:105A400044EA023223F0A00343EA011182610162B9
:105A500010BD00009FED090A00F5806080ED780A16
:105A60009FED070A80ED790A9FED060A80ED7A0A1C
:105A70009FED050A80ED7B0A7047000000E0DC45E1
:105A80000040364500E8854500E0A34410B50348D2
:105A9000FDF72CFCBDE8104003F0D0B978060020DB
:105AA0000148FDF723BC0000BC06002010B5806B48
:105AB0000021C185C184FDF717FC10BD70B5846B52
:105AC00020684069C0F3C01094F83D1000252129DA
:105AD00004D118B1E584204600F097F820684069A9
